{
  "address": "0xa513E6E4b8f2a923D98304ec87F64353C4D5C853",
  "abi": [
    {
      "inputs": [
        {
          "internalType": "string",
          "name": "lowSvg",
          "type": "string"
        },
        {
          "internalType": "string",
          "name": "highSvg",
          "type": "string"
        },
        {
          "internalType": "address",
          "name": "priceFeedAggregator",
          "type": "address"
        }
      ],
      "stateMutability": "nonpayable",
      "type": "constructor"
    },
    {
      "anonymous": false,
      "inputs": [
        {
          "indexed": true,
          "internalType": "address",
          "name": "owner",
          "type": "address"
        },
        {
          "indexed": true,
          "internalType": "address",
          "name": "approved",
          "type": "address"
        },
        {
          "indexed": true,
          "internalType": "uint256",
          "name": "tokenId",
          "type": "uint256"
        }
      ],
      "name": "Approval",
      "type": "event"
    },
    {
      "anonymous": false,
      "inputs": [
        {
          "indexed": true,
          "internalType": "address",
          "name": "owner",
          "type": "address"
        },
        {
          "indexed": true,
          "internalType": "address",
          "name": "operator",
          "type": "address"
        },
        {
          "indexed": false,
          "internalType": "bool",
          "name": "approved",
          "type": "bool"
        }
      ],
      "name": "ApprovalForAll",
      "type": "event"
    },
    {
      "anonymous": false,
      "inputs": [
        {
          "indexed": true,
          "internalType": "uint256",
          "name": "tokenId",
          "type": "uint256"
        },
        {
          "indexed": true,
          "internalType": "int256",
          "name": "highValue",
          "type": "int256"
        }
      ],
      "name": "CreatedNFT",
      "type": "event"
    },
    {
      "anonymous": false,
      "inputs": [
        {
          "indexed": true,
          "internalType": "address",
          "name": "from",
          "type": "address"
        },
        {
          "indexed": true,
          "internalType": "address",
          "name": "to",
          "type": "address"
        },
        {
          "indexed": true,
          "internalType": "uint256",
          "name": "tokenId",
          "type": "uint256"
        }
      ],
      "name": "Transfer",
      "type": "event"
    },
    {
      "inputs": [
        {
          "internalType": "address",
          "name": "to",
          "type": "address"
        },
        {
          "internalType": "uint256",
          "name": "tokenId",
          "type": "uint256"
        }
      ],
      "name": "approve",
      "outputs": [],
      "stateMutability": "nonpayable",
      "type": "function"
    },
    {
      "inputs": [
        {
          "internalType": "address",
          "name": "owner",
          "type": "address"
        }
      ],
      "name": "balanceOf",
      "outputs": [
        {
          "internalType": "uint256",
          "name": "",
          "type": "uint256"
        }
      ],
      "stateMutability": "view",
      "type": "function"
    },
    {
      "inputs": [
        {
          "internalType": "uint256",
          "name": "tokenId",
          "type": "uint256"
        }
      ],
      "name": "getApproved",
      "outputs": [
        {
          "internalType": "address",
          "name": "",
          "type": "address"
        }
      ],
      "stateMutability": "view",
      "type": "function"
    },
    {
      "inputs": [],
      "name": "getHighSvg",
      "outputs": [
        {
          "internalType": "string",
          "name": "",
          "type": "string"
        }
      ],
      "stateMutability": "view",
      "type": "function"
    },
    {
      "inputs": [],
      "name": "getLowSvg",
      "outputs": [
        {
          "internalType": "string",
          "name": "",
          "type": "string"
        }
      ],
      "stateMutability": "view",
      "type": "function"
    },
    {
      "inputs": [],
      "name": "getPriceFeed",
      "outputs": [
        {
          "internalType": "contract AggregatorV3Interface",
          "name": "",
          "type": "address"
        }
      ],
      "stateMutability": "view",
      "type": "function"
    },
    {
      "inputs": [],
      "name": "getTokenId",
      "outputs": [
        {
          "internalType": "uint256",
          "name": "",
          "type": "uint256"
        }
      ],
      "stateMutability": "view",
      "type": "function"
    },
    {
      "inputs": [
        {
          "internalType": "address",
          "name": "owner",
          "type": "address"
        },
        {
          "internalType": "address",
          "name": "operator",
          "type": "address"
        }
      ],
      "name": "isApprovedForAll",
      "outputs": [
        {
          "internalType": "bool",
          "name": "",
          "type": "bool"
        }
      ],
      "stateMutability": "view",
      "type": "function"
    },
    {
      "inputs": [
        {
          "internalType": "int256",
          "name": "highValue",
          "type": "int256"
        }
      ],
      "name": "mintNft",
      "outputs": [],
      "stateMutability": "nonpayable",
      "type": "function"
    },
    {
      "inputs": [],
      "name": "name",
      "outputs": [
        {
          "internalType": "string",
          "name": "",
          "type": "string"
        }
      ],
      "stateMutability": "view",
      "type": "function"
    },
    {
      "inputs": [
        {
          "internalType": "uint256",
          "name": "tokenId",
          "type": "uint256"
        }
      ],
      "name": "ownerOf",
      "outputs": [
        {
          "internalType": "address",
          "name": "",
          "type": "address"
        }
      ],
      "stateMutability": "view",
      "type": "function"
    },
    {
      "inputs": [
        {
          "internalType": "uint256",
          "name": "",
          "type": "uint256"
        }
      ],
      "name": "s_tokenIdToHighValue",
      "outputs": [
        {
          "internalType": "int256",
          "name": "",
          "type": "int256"
        }
      ],
      "stateMutability": "view",
      "type": "function"
    },
    {
      "inputs": [
        {
          "internalType": "address",
          "name": "from",
          "type": "address"
        },
        {
          "internalType": "address",
          "name": "to",
          "type": "address"
        },
        {
          "internalType": "uint256",
          "name": "tokenId",
          "type": "uint256"
        }
      ],
      "name": "safeTransferFrom",
      "outputs": [],
      "stateMutability": "nonpayable",
      "type": "function"
    },
    {
      "inputs": [
        {
          "internalType": "address",
          "name": "from",
          "type": "address"
        },
        {
          "internalType": "address",
          "name": "to",
          "type": "address"
        },
        {
          "internalType": "uint256",
          "name": "tokenId",
          "type": "uint256"
        },
        {
          "internalType": "bytes",
          "name": "data",
          "type": "bytes"
        }
      ],
      "name": "safeTransferFrom",
      "outputs": [],
      "stateMutability": "nonpayable",
      "type": "function"
    },
    {
      "inputs": [
        {
          "internalType": "address",
          "name": "operator",
          "type": "address"
        },
        {
          "internalType": "bool",
          "name": "approved",
          "type": "bool"
        }
      ],
      "name": "setApprovalForAll",
      "outputs": [],
      "stateMutability": "nonpayable",
      "type": "function"
    },
    {
      "inputs": [
        {
          "internalType": "bytes4",
          "name": "interfaceId",
          "type": "bytes4"
        }
      ],
      "name": "supportsInterface",
      "outputs": [
        {
          "internalType": "bool",
          "name": "",
          "type": "bool"
        }
      ],
      "stateMutability": "view",
      "type": "function"
    },
    {
      "inputs": [
        {
          "internalType": "string",
          "name": "svg",
          "type": "string"
        }
      ],
      "name": "svgToImageUri",
      "outputs": [
        {
          "internalType": "string",
          "name": "",
          "type": "string"
        }
      ],
      "stateMutability": "pure",
      "type": "function"
    },
    {
      "inputs": [],
      "name": "symbol",
      "outputs": [
        {
          "internalType": "string",
          "name": "",
          "type": "string"
        }
      ],
      "stateMutability": "view",
      "type": "function"
    },
    {
      "inputs": [
        {
          "internalType": "uint256",
          "name": "tokenId",
          "type": "uint256"
        }
      ],
      "name": "tokenURI",
      "outputs": [
        {
          "internalType": "string",
          "name": "",
          "type": "string"
        }
      ],
      "stateMutability": "view",
      "type": "function"
    },
    {
      "inputs": [
        {
          "internalType": "address",
          "name": "from",
          "type": "address"
        },
        {
          "internalType": "address",
          "name": "to",
          "type": "address"
        },
        {
          "internalType": "uint256",
          "name": "tokenId",
          "type": "uint256"
        }
      ],
      "name": "transferFrom",
      "outputs": [],
      "stateMutability": "nonpayable",
      "type": "function"
    }
  ],
  "transactionHash": "0xb4902421971dfadaa7053ed4dc00c89de210572afc6d25498edb96dc2a8ad40a",
  "args": [
    "<?xml version=\"1.0\" standalone=\"no\"?>\n<svg width=\"1024px\" height=\"1024px\" viewBox=\"0 0 1024 1024\" xmlns=\"http://www.w3.org/2000/svg\">\n  <path fill=\"#333\" d=\"M512 64C264.6 64 64 264.6 64 512s200.6 448 448 448 448-200.6 448-448S759.4 64 512 64zm0 820c-205.4 0-372-166.6-372-372s166.6-372 372-372 372 166.6 372 372-166.6 372-372 372z\"/>\n  <path fill=\"#E6E6E6\" d=\"M512 140c-205.4 0-372 166.6-372 372s166.6 372 372 372 372-166.6 372-372-166.6-372-372-372zM288 421a48.01 48.01 0 0 1 96 0 48.01 48.01 0 0 1-96 0zm376 272h-48.1c-4.2 0-7.8-3.2-8.1-7.4C604 636.1 562.5 597 512 597s-92.1 39.1-95.8 88.6c-.3 4.2-3.9 7.4-8.1 7.4H360a8 8 0 0 1-8-8.4c4.4-84.3 74.5-151.6 160-151.6s155.6 67.3 160 151.6a8 8 0 0 1-8 8.4zm24-224a48.01 48.01 0 0 1 0-96 48.01 48.01 0 0 1 0 96z\"/>\n  <path fill=\"#333\" d=\"M288 421a48 48 0 1 0 96 0 48 48 0 1 0-96 0zm224 112c-85.5 0-155.6 67.3-160 151.6a8 8 0 0 0 8 8.4h48.1c4.2 0 7.8-3.2 8.1-7.4 3.7-49.5 45.3-88.6 95.8-88.6s92 39.1 95.8 88.6c.3 4.2 3.9 7.4 8.1 7.4H664a8 8 0 0 0 8-8.4C667.6 600.3 597.5 533 512 533zm128-112a48 48 0 1 0 96 0 48 48 0 1 0-96 0z\"/>\n</svg>\n",
    "<svg viewBox=\"0 0 200 200\" width=\"400\"  height=\"400\" xmlns=\"http://www.w3.org/2000/svg\">\n  <circle cx=\"100\" cy=\"100\" fill=\"yellow\" r=\"78\" stroke=\"black\" stroke-width=\"3\"/>\n  <g class=\"eyes\">\n    <circle cx=\"61\" cy=\"82\" r=\"12\"/>\n    <circle cx=\"127\" cy=\"82\" r=\"12\"/>\n  </g>\n  <path d=\"m136.81 116.53c.69 26.17-64.11 42-81.52-.73\" style=\"fill:none; stroke: black; stroke-width: 3;\"/>\n</svg>",
    "0xe7f1725E7734CE288F8367e1Bb143E90bb3F0512"
  ],
  "numDeployments": 1,
  "solcInputHash": "8619c493d0b10a7759d7c1ad16b1c3bf",
  "bytecode": "0x60a06040523480156200001157600080fd5b5060405162003b5638038062003b5683398181016040528101906200003791906200055e565b6040518060400160405280600581526020017f536d696c650000000000000000000000000000000000000000000000000000008152506040518060400160405280600381526020017f534d4c00000000000000000000000000000000000000000000000000000000008152508160009081620000b4919062000843565b508060019081620000c6919062000843565b5050506000600681905550620000e2836200015260201b60201c565b60079081620000f2919062000843565b5062000104826200015260201b60201c565b6008908162000114919062000843565b508073ffffffffffffffffffffffffffffffffffffffff1660808173ffffffffffffffffffffffffffffffffffffffff168152505050505062000ac9565b606060006200018d836040516020016200016d91906200096c565b604051602081830303815290604052620001f060201b62000f211760201c565b90506040518060400160405280601a81526020017f646174613a696d6167652f7376672b786d6c3b6261736536342c00000000000081525081604051602001620001d992919062000985565b604051602081830303815290604052915050919050565b60606000825103620002145760405180602001604052806000815250905062000361565b600060405180606001604052806040815260200162003b166040913990506000600360028551620002469190620009dc565b62000252919062000a46565b600462000260919062000a7e565b67ffffffffffffffff8111156200027c576200027b62000395565b5b6040519080825280601f01601f191660200182016040528015620002af5781602001600182028036833780820191505090505b509050600182016020820185865187015b808210156200031d576003820191508151603f8160121c168501518453600184019350603f81600c1c168501518453600184019350603f8160061c168501518453600184019350603f8116850151845360018401935050620002c0565b50506003865106600181146200033c5760028114620003505762000358565b603d6001830353603d600283035362000358565b603d60018303535b50505080925050505b919050565b6000604051905090565b600080fd5b600080fd5b600080fd5b600080fd5b6000601f19601f8301169050919050565b7f4e487b7100000000000000000000000000000000000000000000000000000000600052604160045260246000fd5b620003cf8262000384565b810181811067ffffffffffffffff82111715620003f157620003f062000395565b5b80604052505050565b60006200040662000366565b9050620004148282620003c4565b919050565b600067ffffffffffffffff82111562000437576200043662000395565b5b620004428262000384565b9050602081019050919050565b60005b838110156200046f57808201518184015260208101905062000452565b60008484015250505050565b6000620004926200048c8462000419565b620003fa565b905082815260208101848484011115620004b157620004b06200037f565b5b620004be8482856200044f565b509392505050565b600082601f830112620004de57620004dd6200037a565b5b8151620004f08482602086016200047b565b91505092915050565b600073ffffffffffffffffffffffffffffffffffffffff82169050919050565b60006200052682620004f9565b9050919050565b620005388162000519565b81146200054457600080fd5b50565b60008151905062000558816200052d565b92915050565b6000806000606084860312156200057a576200057962000370565b5b600084015167ffffffffffffffff8111156200059b576200059a62000375565b5b620005a986828701620004c6565b935050602084015167ffffffffffffffff811115620005cd57620005cc62000375565b5b620005db86828701620004c6565b9250506040620005ee8682870162000547565b9150509250925092565b600081519050919050565b7f4e487b7100000000000000000000000000000000000000000000000000000000600052602260045260246000fd5b600060028204905060018216806200064b57607f821691505b60208210810362000661576200066062000603565b5b50919050565b60008190508160005260206000209050919050565b60006020601f8301049050919050565b600082821b905092915050565b600060088302620006cb7fffffffffffffffffffffffffffffffffffffffffffffffffffffffffffffffff826200068c565b620006d786836200068c565b95508019841693508086168417925050509392505050565b6000819050919050565b6000819050919050565b6000620007246200071e6200071884620006ef565b620006f9565b620006ef565b9050919050565b6000819050919050565b620007408362000703565b620007586200074f826200072b565b84845462000699565b825550505050565b600090565b6200076f62000760565b6200077c81848462000735565b505050565b5b81811015620007a4576200079860008262000765565b60018101905062000782565b5050565b601f821115620007f357620007bd8162000667565b620007c8846200067c565b81016020851015620007d8578190505b620007f0620007e7856200067c565b83018262000781565b50505b505050565b600082821c905092915050565b60006200081860001984600802620007f8565b1980831691505092915050565b600062000833838362000805565b9150826002028217905092915050565b6200084e82620005f8565b67ffffffffffffffff8111156200086a576200086962000395565b5b62000876825462000632565b62000883828285620007a8565b600060209050601f831160018114620008bb5760008415620008a6578287015190505b620008b2858262000825565b86555062000922565b601f198416620008cb8662000667565b60005b82811015620008f557848901518255600182019150602085019450602081019050620008ce565b8683101562000915578489015162000911601f89168262000805565b8355505b6001600288020188555050505b505050505050565b600081905092915050565b60006200094282620005f8565b6200094e81856200092a565b9350620009608185602086016200044f565b80840191505092915050565b60006200097a828462000935565b915081905092915050565b600062000993828562000935565b9150620009a1828462000935565b91508190509392505050565b7f4e487b7100000000000000000000000000000000000000000000000000000000600052601160045260246000fd5b6000620009e982620006ef565b9150620009f683620006ef565b925082820190508082111562000a115762000a10620009ad565b5b92915050565b7f4e487b7100000000000000000000000000000000000000000000000000000000600052601260045260246000fd5b600062000a5382620006ef565b915062000a6083620006ef565b92508262000a735762000a7262000a17565b5b828204905092915050565b600062000a8b82620006ef565b915062000a9883620006ef565b925082820262000aa881620006ef565b9150828204841483151762000ac25762000ac1620009ad565b5b5092915050565b60805161302a62000aec60003960008181610b5f0152610c49015261302a6000f3fe608060405234801561001057600080fd5b506004361061012c5760003560e01c80636352211e116100ad578063a22cb46511610071578063a22cb46514610345578063b88d4fde14610361578063c87b56dd1461037d578063e425aded146103ad578063e985e9c5146103dd5761012c565b80636352211e1461028b57806370a08231146102bb578063727e2e28146102eb57806395d89b41146103095780639e87a5cd146103275761012c565b8063095ea7b3116100f4578063095ea7b3146101eb5780631e9308121461020757806323b872dd146102235780633207d93c1461023f57806342842e0e1461026f5761012c565b8063010a38f51461013157806301ffc9a71461014f578063045af9161461017f57806306fdde031461019d578063081812fc146101bb575b600080fd5b61013961040d565b6040516101469190611c70565b60405180910390f35b61016960048036038101906101649190611cf7565b610417565b6040516101769190611d3f565b60405180910390f35b6101876104f9565b6040516101949190611dea565b60405180910390f35b6101a561058b565b6040516101b29190611dea565b60405180910390f35b6101d560048036038101906101d09190611e38565b61061d565b6040516101e29190611ea6565b60405180910390f35b61020560048036038101906102009190611eed565b610663565b005b610221600480360381019061021c9190611f63565b61077a565b005b61023d60048036038101906102389190611f90565b6107ed565b005b61025960048036038101906102549190612118565b61084d565b6040516102669190611dea565b60405180910390f35b61028960048036038101906102849190611f90565b6108da565b005b6102a560048036038101906102a09190611e38565b6108fa565b6040516102b29190611ea6565b60405180910390f35b6102d560048036038101906102d09190612161565b610980565b6040516102e29190611c70565b60405180910390f35b6102f3610a37565b6040516103009190611dea565b60405180910390f35b610311610ac9565b60405161031e9190611dea565b60405180910390f35b61032f610b5b565b60405161033c91906121ed565b60405180910390f35b61035f600480360381019061035a9190612234565b610b83565b005b61037b60048036038101906103769190612315565b610b99565b005b61039760048036038101906103929190611e38565b610bfb565b6040516103a49190611dea565b60405180910390f35b6103c760048036038101906103c29190611e38565b610e75565b6040516103d491906123a7565b60405180910390f35b6103f760048036038101906103f291906123c2565b610e8d565b6040516104049190611d3f565b60405180910390f35b6000600654905090565b60007f80ac58cd000000000000000000000000000000000000000000000000000000007bffffffffffffffffffffffffffffffffffffffffffffffffffffffff1916827bffffffffffffffffffffffffffffffffffffffffffffffffffffffff191614806104e257507f5b5e139f000000000000000000000000000000000000000000000000000000007bffffffffffffffffffffffffffffffffffffffffffffffffffffffff1916827bffffffffffffffffffffffffffffffffffffffffffffffffffffffff1916145b806104f257506104f182611084565b5b9050919050565b60606008805461050890612431565b80601f016020809104026020016040519081016040528092919081815260200182805461053490612431565b80156105815780601f1061055657610100808354040283529160200191610581565b820191906000526020600020905b81548152906001019060200180831161056457829003601f168201915b5050505050905090565b60606000805461059a90612431565b80601f01602080910402602001604051908101604052809291908181526020018280546105c690612431565b80156106135780601f106105e857610100808354040283529160200191610613565b820191906000526020600020905b8154815290600101906020018083116105f657829003601f168201915b5050505050905090565b6000610628826110ee565b6004600083815260200190815260200160002060009054906101000a900473ffffffffffffffffffffffffffffffffffffffff169050919050565b600061066e826108fa565b90508073ffffffffffffffffffffffffffffffffffffffff168373ffffffffffffffffffffffffffffffffffffffff16036106de576040517f08c379a00000000000000000000000000000000000000000000000000000000081526004016106d5906124d4565b60405180910390fd5b8073ffffffffffffffffffffffffffffffffffffffff166106fd611139565b73ffffffffffffffffffffffffffffffffffffffff16148061072c575061072b81610726611139565b610e8d565b5b61076b576040517f08c379a000000000000000000000000000000000000000000000000000000000815260040161076290612566565b60405180910390fd5b6107758383611141565b505050565b60016006600082825461078d91906125b5565b9250508190555080600960006006548152602001908152602001600020819055506107ba336006546111fa565b806006547f882d3b5a729a8bb95cf6c0083c99b42ecd9637123d4425bd7b768877fd8af8b060405160405180910390a350565b6107fe6107f8611139565b82611218565b61083d576040517f08c379a00000000000000000000000000000000000000000000000000000000081526004016108349061265b565b60405180910390fd5b6108488383836112ad565b505050565b606060006108798360405160200161086591906126b7565b604051602081830303815290604052610f21565b90506040518060400160405280601a81526020017f646174613a696d6167652f7376672b786d6c3b6261736536342c000000000000815250816040516020016108c39291906126ce565b604051602081830303815290604052915050919050565b6108f583838360405180602001604052806000815250610b99565b505050565b600080610906836115a6565b9050600073ffffffffffffffffffffffffffffffffffffffff168173ffffffffffffffffffffffffffffffffffffffff1603610977576040517f08c379a000000000000000000000000000000000000000000000000000000000815260040161096e9061273e565b60405180910390fd5b80915050919050565b60008073ffffffffffffffffffffffffffffffffffffffff168273ffffffffffffffffffffffffffffffffffffffff16036109f0576040517f08c379a00000000000000000000000000000000000000000000000000000000081526004016109e7906127d0565b60405180910390fd5b600360008373ffffffffffffffffffffffffffffffffffffffff1673ffffffffffffffffffffffffffffffffffffffff168152602001908152602001600020549050919050565b606060078054610a4690612431565b80601f0160208091040260200160405190810160405280929190818152602001828054610a7290612431565b8015610abf5780601f10610a9457610100808354040283529160200191610abf565b820191906000526020600020905b815481529060010190602001808311610aa257829003601f168201915b5050505050905090565b606060018054610ad890612431565b80601f0160208091040260200160405190810160405280929190818152602001828054610b0490612431565b8015610b515780601f10610b2657610100808354040283529160200191610b51565b820191906000526020600020905b815481529060010190602001808311610b3457829003601f168201915b5050505050905090565b60007f0000000000000000000000000000000000000000000000000000000000000000905090565b610b95610b8e611139565b83836115e3565b5050565b610baa610ba4611139565b83611218565b610be9576040517f08c379a0000000000000000000000000000000000000000000000000000000008152600401610be09061265b565b60405180910390fd5b610bf58484848461174f565b50505050565b6060610c06826117ab565b610c45576040517f08c379a0000000000000000000000000000000000000000000000000000000008152600401610c3c9061283c565b60405180910390fd5b60007f000000000000000000000000000000000000000000000000000000000000000073ffffffffffffffffffffffffffffffffffffffff1663feaf968c6040518163ffffffff1660e01b815260040160a060405180830381865afa158015610cb2573d6000803e3d6000fd5b505050506040513d601f19601f82011682018060405250810190610cd691906128c8565b505050915050600060078054610ceb90612431565b80601f0160208091040260200160405190810160405280929190818152602001828054610d1790612431565b8015610d645780601f10610d3957610100808354040283529160200191610d64565b820191906000526020600020905b815481529060010190602001808311610d4757829003601f168201915b5050505050905060096000858152602001908152602001600020548212610e135760088054610d9290612431565b80601f0160208091040260200160405190810160405280929190818152602001828054610dbe90612431565b8015610e0b5780601f10610de057610100808354040283529160200191610e0b565b820191906000526020600020905b815481529060010190602001808311610dee57829003601f168201915b505050505090505b610e1b6117ec565b610e4c610e2661058b565b83604051602001610e38929190612ae5565b604051602081830303815290604052610f21565b604051602001610e5d9291906126ce565b60405160208183030381529060405292505050919050565b60096020528060005260406000206000915090505481565b6000600560008473ffffffffffffffffffffffffffffffffffffffff1673ffffffffffffffffffffffffffffffffffffffff16815260200190815260200160002060008373ffffffffffffffffffffffffffffffffffffffff1673ffffffffffffffffffffffffffffffffffffffff16815260200190815260200160002060009054906101000a900460ff16905092915050565b60606000825103610f435760405180602001604052806000815250905061107f565b6000604051806060016040528060408152602001612fb56040913990506000600360028551610f7291906125b5565b610f7c9190612b64565b6004610f889190612b95565b67ffffffffffffffff811115610fa157610fa0611fed565b5b6040519080825280601f01601f191660200182016040528015610fd35781602001600182028036833780820191505090505b509050600182016020820185865187015b8082101561103f576003820191508151603f8160121c168501518453600184019350603f81600c1c168501518453600184019350603f8160061c168501518453600184019350603f8116850151845360018401935050610fe4565b505060038651066001811461105b576002811461106e57611076565b603d6001830353603d6002830353611076565b603d60018303535b50505080925050505b919050565b60007f01ffc9a7000000000000000000000000000000000000000000000000000000007bffffffffffffffffffffffffffffffffffffffffffffffffffffffff1916827bffffffffffffffffffffffffffffffffffffffffffffffffffffffff1916149050919050565b6110f7816117ab565b611136576040517f08c379a000000000000000000000000000000000000000000000000000000000815260040161112d9061273e565b60405180910390fd5b50565b600033905090565b816004600083815260200190815260200160002060006101000a81548173ffffffffffffffffffffffffffffffffffffffff021916908373ffffffffffffffffffffffffffffffffffffffff160217905550808273ffffffffffffffffffffffffffffffffffffffff166111b4836108fa565b73ffffffffffffffffffffffffffffffffffffffff167f8c5be1e5ebec7d5bd14f71427d1e84f3dd0314c0f7b2291e5b200ac8c7c3b92560405160405180910390a45050565b611214828260405180602001604052806000815250611829565b5050565b600080611224836108fa565b90508073ffffffffffffffffffffffffffffffffffffffff168473ffffffffffffffffffffffffffffffffffffffff16148061126657506112658185610e8d565b5b806112a457508373ffffffffffffffffffffffffffffffffffffffff1661128c8461061d565b73ffffffffffffffffffffffffffffffffffffffff16145b91505092915050565b8273ffffffffffffffffffffffffffffffffffffffff166112cd826108fa565b73ffffffffffffffffffffffffffffffffffffffff1614611323576040517f08c379a000000000000000000000000000000000000000000000000000000000815260040161131a90612c49565b60405180910390fd5b600073ffffffffffffffffffffffffffffffffffffffff168273ffffffffffffffffffffffffffffffffffffffff1603611392576040517f08c379a000000000000000000000000000000000000000000000000000000000815260040161138990612cdb565b60405180910390fd5b61139f8383836001611884565b8273ffffffffffffffffffffffffffffffffffffffff166113bf826108fa565b73ffffffffffffffffffffffffffffffffffffffff1614611415576040517f08c379a000000000000000000000000000000000000000000000000000000000815260040161140c90612c49565b60405180910390fd5b6004600082815260200190815260200160002060006101000a81549073ffffffffffffffffffffffffffffffffffffffff02191690556001600360008573ffffffffffffffffffffffffffffffffffffffff1673ffffffffffffffffffffffffffffffffffffffff168152602001908152602001600020600082825403925050819055506001600360008473ffffffffffffffffffffffffffffffffffffffff1673ffffffffffffffffffffffffffffffffffffffff16815260200190815260200160002060008282540192505081905550816002600083815260200190815260200160002060006101000a81548173ffffffffffffffffffffffffffffffffffffffff021916908373ffffffffffffffffffffffffffffffffffffffff160217905550808273ffffffffffffffffffffffffffffffffffffffff168473ffffffffffffffffffffffffffffffffffffffff167fddf252ad1be2c89b69c2b068fc378daa952ba7f163c4a11628f55a4df523b3ef60405160405180910390a46115a1838383600161188a565b505050565b60006002600083815260200190815260200160002060009054906101000a900473ffffffffffffffffffffffffffffffffffffffff169050919050565b8173ffffffffffffffffffffffffffffffffffffffff168373ffffffffffffffffffffffffffffffffffffffff1603611651576040517f08c379a000000000000000000000000000000000000000000000000000000000815260040161164890612d47565b60405180910390fd5b80600560008573ffffffffffffffffffffffffffffffffffffffff1673ffffffffffffffffffffffffffffffffffffffff16815260200190815260200160002060008473ffffffffffffffffffffffffffffffffffffffff1673ffffffffffffffffffffffffffffffffffffffff16815260200190815260200160002060006101000a81548160ff0219169083151502179055508173ffffffffffffffffffffffffffffffffffffffff168373ffffffffffffffffffffffffffffffffffffffff167f17307eab39ab6107e8899845ad3d59bd9653f200f220920489ca2b5937696c31836040516117429190611d3f565b60405180910390a3505050565b61175a8484846112ad565b61176684848484611890565b6117a5576040517f08c379a000000000000000000000000000000000000000000000000000000000815260040161179c90612dd9565b60405180910390fd5b50505050565b60008073ffffffffffffffffffffffffffffffffffffffff166117cd836115a6565b73ffffffffffffffffffffffffffffffffffffffff1614159050919050565b60606040518060400160405280601d81526020017f646174613a6170706c69636174696f6e2f6a736f6e3b6261736536342c000000815250905090565b6118338383611a17565b6118406000848484611890565b61187f576040517f08c379a000000000000000000000000000000000000000000000000000000000815260040161187690612dd9565b60405180910390fd5b505050565b50505050565b50505050565b60006118b18473ffffffffffffffffffffffffffffffffffffffff16611c34565b15611a0a578373ffffffffffffffffffffffffffffffffffffffff1663150b7a026118da611139565b8786866040518563ffffffff1660e01b81526004016118fc9493929190612e4e565b6020604051808303816000875af192505050801561193857506040513d601f19601f820116820180604052508101906119359190612eaf565b60015b6119ba573d8060008114611968576040519150601f19603f3d011682016040523d82523d6000602084013e61196d565b606091505b5060008151036119b2576040517f08c379a00000000000000000000000000000000000000000000000000000000081526004016119a990612dd9565b60405180910390fd5b805181602001fd5b63150b7a0260e01b7bffffffffffffffffffffffffffffffffffffffffffffffffffffffff1916817bffffffffffffffffffffffffffffffffffffffffffffffffffffffff191614915050611a0f565b600190505b949350505050565b600073ffffffffffffffffffffffffffffffffffffffff168273ffffffffffffffffffffffffffffffffffffffff1603611a86576040517f08c379a0000000000000000000000000000000000000000000000000000000008152600401611a7d90612f28565b60405180910390fd5b611a8f816117ab565b15611acf576040517f08c379a0000000000000000000000000000000000000000000000000000000008152600401611ac690612f94565b60405180910390fd5b611add600083836001611884565b611ae6816117ab565b15611b26576040517f08c379a0000000000000000000000000000000000000000000000000000000008152600401611b1d90612f94565b60405180910390fd5b6001600360008473ffffffffffffffffffffffffffffffffffffffff1673ffffffffffffffffffffffffffffffffffffffff16815260200190815260200160002060008282540192505081905550816002600083815260200190815260200160002060006101000a81548173ffffffffffffffffffffffffffffffffffffffff021916908373ffffffffffffffffffffffffffffffffffffffff160217905550808273ffffffffffffffffffffffffffffffffffffffff16600073ffffffffffffffffffffffffffffffffffffffff167fddf252ad1be2c89b69c2b068fc378daa952ba7f163c4a11628f55a4df523b3ef60405160405180910390a4611c3060008383600161188a565b5050565b6000808273ffffffffffffffffffffffffffffffffffffffff163b119050919050565b6000819050919050565b611c6a81611c57565b82525050565b6000602082019050611c856000830184611c61565b92915050565b6000604051905090565b600080fd5b600080fd5b60007fffffffff0000000000000000000000000000000000000000000000000000000082169050919050565b611cd481611c9f565b8114611cdf57600080fd5b50565b600081359050611cf181611ccb565b92915050565b600060208284031215611d0d57611d0c611c95565b5b6000611d1b84828501611ce2565b91505092915050565b60008115159050919050565b611d3981611d24565b82525050565b6000602082019050611d546000830184611d30565b92915050565b600081519050919050565b600082825260208201905092915050565b60005b83811015611d94578082015181840152602081019050611d79565b60008484015250505050565b6000601f19601f8301169050919050565b6000611dbc82611d5a565b611dc68185611d65565b9350611dd6818560208601611d76565b611ddf81611da0565b840191505092915050565b60006020820190508181036000830152611e048184611db1565b905092915050565b611e1581611c57565b8114611e2057600080fd5b50565b600081359050611e3281611e0c565b92915050565b600060208284031215611e4e57611e4d611c95565b5b6000611e5c84828501611e23565b91505092915050565b600073ffffffffffffffffffffffffffffffffffffffff82169050919050565b6000611e9082611e65565b9050919050565b611ea081611e85565b82525050565b6000602082019050611ebb6000830184611e97565b92915050565b611eca81611e85565b8114611ed557600080fd5b50565b600081359050611ee781611ec1565b92915050565b60008060408385031215611f0457611f03611c95565b5b6000611f1285828601611ed8565b9250506020611f2385828601611e23565b9150509250929050565b6000819050919050565b611f4081611f2d565b8114611f4b57600080fd5b50565b600081359050611f5d81611f37565b92915050565b600060208284031215611f7957611f78611c95565b5b6000611f8784828501611f4e565b91505092915050565b600080600060608486031215611fa957611fa8611c95565b5b6000611fb786828701611ed8565b9350506020611fc886828701611ed8565b9250506040611fd986828701611e23565b9150509250925092565b600080fd5b600080fd5b7f4e487b7100000000000000000000000000000000000000000000000000000000600052604160045260246000fd5b61202582611da0565b810181811067ffffffffffffffff8211171561204457612043611fed565b5b80604052505050565b6000612057611c8b565b9050612063828261201c565b919050565b600067ffffffffffffffff82111561208357612082611fed565b5b61208c82611da0565b9050602081019050919050565b82818337600083830152505050565b60006120bb6120b684612068565b61204d565b9050828152602081018484840111156120d7576120d6611fe8565b5b6120e2848285612099565b509392505050565b600082601f8301126120ff576120fe611fe3565b5b813561210f8482602086016120a8565b91505092915050565b60006020828403121561212e5761212d611c95565b5b600082013567ffffffffffffffff81111561214c5761214b611c9a565b5b612158848285016120ea565b91505092915050565b60006020828403121561217757612176611c95565b5b600061218584828501611ed8565b91505092915050565b6000819050919050565b60006121b36121ae6121a984611e65565b61218e565b611e65565b9050919050565b60006121c582612198565b9050919050565b60006121d7826121ba565b9050919050565b6121e7816121cc565b82525050565b600060208201905061220260008301846121de565b92915050565b61221181611d24565b811461221c57600080fd5b50565b60008135905061222e81612208565b92915050565b6000806040838503121561224b5761224a611c95565b5b600061225985828601611ed8565b925050602061226a8582860161221f565b9150509250929050565b600067ffffffffffffffff82111561228f5761228e611fed565b5b61229882611da0565b9050602081019050919050565b60006122b86122b384612274565b61204d565b9050828152602081018484840111156122d4576122d3611fe8565b5b6122df848285612099565b509392505050565b600082601f8301126122fc576122fb611fe3565b5b813561230c8482602086016122a5565b91505092915050565b6000806000806080858703121561232f5761232e611c95565b5b600061233d87828801611ed8565b945050602061234e87828801611ed8565b935050604061235f87828801611e23565b925050606085013567ffffffffffffffff8111156123805761237f611c9a565b5b61238c878288016122e7565b91505092959194509250565b6123a181611f2d565b82525050565b60006020820190506123bc6000830184612398565b92915050565b600080604083850312156123d9576123d8611c95565b5b60006123e785828601611ed8565b92505060206123f885828601611ed8565b9150509250929050565b7f4e487b7100000000000000000000000000000000000000000000000000000000600052602260045260246000fd5b6000600282049050600182168061244957607f821691505b60208210810361245c5761245b612402565b5b50919050565b7f4552433732313a20617070726f76616c20746f2063757272656e74206f776e6560008201527f7200000000000000000000000000000000000000000000000000000000000000602082015250565b60006124be602183611d65565b91506124c982612462565b604082019050919050565b600060208201905081810360008301526124ed816124b1565b9050919050565b7f4552433732313a20617070726f76652063616c6c6572206973206e6f7420746f60008201527f6b656e206f776e6572206f7220617070726f76656420666f7220616c6c000000602082015250565b6000612550603d83611d65565b915061255b826124f4565b604082019050919050565b6000602082019050818103600083015261257f81612543565b9050919050565b7f4e487b7100000000000000000000000000000000000000000000000000000000600052601160045260246000fd5b60006125c082611c57565b91506125cb83611c57565b92508282019050808211156125e3576125e2612586565b5b92915050565b7f4552433732313a2063616c6c6572206973206e6f7420746f6b656e206f776e6560008201527f72206f7220617070726f76656400000000000000000000000000000000000000602082015250565b6000612645602d83611d65565b9150612650826125e9565b604082019050919050565b6000602082019050818103600083015261267481612638565b9050919050565b600081905092915050565b600061269182611d5a565b61269b818561267b565b93506126ab818560208601611d76565b80840191505092915050565b60006126c38284612686565b915081905092915050565b60006126da8285612686565b91506126e68284612686565b91508190509392505050565b7f4552433732313a20696e76616c696420746f6b656e2049440000000000000000600082015250565b6000612728601883611d65565b9150612733826126f2565b602082019050919050565b600060208201905081810360008301526127578161271b565b9050919050565b7f4552433732313a2061646472657373207a65726f206973206e6f74206120766160008201527f6c6964206f776e65720000000000000000000000000000000000000000000000602082015250565b60006127ba602983611d65565b91506127c58261275e565b604082019050919050565b600060208201905081810360008301526127e9816127ad565b9050919050565b7f546f6b656e20696420646f65736e277420657869737400000000000000000000600082015250565b6000612826601683611d65565b9150612831826127f0565b602082019050919050565b6000602082019050818103600083015261285581612819565b9050919050565b600069ffffffffffffffffffff82169050919050565b61287b8161285c565b811461288657600080fd5b50565b60008151905061289881612872565b92915050565b6000815190506128ad81611f37565b92915050565b6000815190506128c281611e0c565b92915050565b600080600080600060a086880312156128e4576128e3611c95565b5b60006128f288828901612889565b95505060206129038882890161289e565b9450506040612914888289016128b3565b9350506060612925888289016128b3565b925050608061293688828901612889565b9150509295509295909350565b7f7b226e616d65223a220000000000000000000000000000000000000000000000600082015250565b600061297960098361267b565b915061298482612943565b600982019050919050565b7f222c20226465736372697074696f6e223a2022416e204e46542074686174206360008201527f68616e67657320696d61676573207768656e207377697463686564222c000000602082015250565b60006129eb603d8361267b565b91506129f68261298f565b603d82019050919050565b7f2261747472696275746573223a205b7b2274726169745f74797065223a20226360008201527f6f6f6c6e657373222c202276616c7565223a203130307d5d202c22696d61676560208201527f223a220000000000000000000000000000000000000000000000000000000000604082015250565b6000612a8360438361267b565b9150612a8e82612a01565b604382019050919050565b7f227d000000000000000000000000000000000000000000000000000000000000600082015250565b6000612acf60028361267b565b9150612ada82612a99565b600282019050919050565b6000612af08261296c565b9150612afc8285612686565b9150612b07826129de565b9150612b1282612a76565b9150612b1e8284612686565b9150612b2982612ac2565b91508190509392505050565b7f4e487b7100000000000000000000000000000000000000000000000000000000600052601260045260246000fd5b6000612b6f82611c57565b9150612b7a83611c57565b925082612b8a57612b89612b35565b5b828204905092915050565b6000612ba082611c57565b9150612bab83611c57565b9250828202612bb981611c57565b91508282048414831517612bd057612bcf612586565b5b5092915050565b7f4552433732313a207472616e736665722066726f6d20696e636f72726563742060008201527f6f776e6572000000000000000000000000000000000000000000000000000000602082015250565b6000612c33602583611d65565b9150612c3e82612bd7565b604082019050919050565b60006020820190508181036000830152612c6281612c26565b9050919050565b7f4552433732313a207472616e7366657220746f20746865207a65726f2061646460008201527f7265737300000000000000000000000000000000000000000000000000000000602082015250565b6000612cc5602483611d65565b9150612cd082612c69565b604082019050919050565b60006020820190508181036000830152612cf481612cb8565b9050919050565b7f4552433732313a20617070726f766520746f2063616c6c657200000000000000600082015250565b6000612d31601983611d65565b9150612d3c82612cfb565b602082019050919050565b60006020820190508181036000830152612d6081612d24565b9050919050565b7f4552433732313a207472616e7366657220746f206e6f6e20455243373231526560008201527f63656976657220696d706c656d656e7465720000000000000000000000000000602082015250565b6000612dc3603283611d65565b9150612dce82612d67565b604082019050919050565b60006020820190508181036000830152612df281612db6565b9050919050565b600081519050919050565b600082825260208201905092915050565b6000612e2082612df9565b612e2a8185612e04565b9350612e3a818560208601611d76565b612e4381611da0565b840191505092915050565b6000608082019050612e636000830187611e97565b612e706020830186611e97565b612e7d6040830185611c61565b8181036060830152612e8f8184612e15565b905095945050505050565b600081519050612ea981611ccb565b92915050565b600060208284031215612ec557612ec4611c95565b5b6000612ed384828501612e9a565b91505092915050565b7f4552433732313a206d696e7420746f20746865207a65726f2061646472657373600082015250565b6000612f12602083611d65565b9150612f1d82612edc565b602082019050919050565b60006020820190508181036000830152612f4181612f05565b9050919050565b7f4552433732313a20746f6b656e20616c7265616479206d696e74656400000000600082015250565b6000612f7e601c83611d65565b9150612f8982612f48565b602082019050919050565b60006020820190508181036000830152612fad81612f71565b905091905056fe4142434445464748494a4b4c4d4e4f505152535455565758595a6162636465666768696a6b6c6d6e6f707172737475767778797a303132333435363738392b2fa264697066735822122088049b292dbd532d067811da93f292d526bd03c07c57550b728eba11ca89209364736f6c634300081200334142434445464748494a4b4c4d4e4f505152535455565758595a6162636465666768696a6b6c6d6e6f707172737475767778797a303132333435363738392b2f",
  "devdoc": {
    "events": {
      "Approval(address,address,uint256)": {
        "details": "Emitted when `owner` enables `approved` to manage the `tokenId` token."
      },
      "ApprovalForAll(address,address,bool)": {
        "details": "Emitted when `owner` enables or disables (`approved`) `operator` to manage all of its assets."
      },
      "Transfer(address,address,uint256)": {
        "details": "Emitted when `tokenId` token is transferred from `from` to `to`."
      }
    },
    "kind": "dev",
    "methods": {
      "approve(address,uint256)": {
        "details": "See {IERC721-approve}."
      },
      "balanceOf(address)": {
        "details": "See {IERC721-balanceOf}."
      },
      "getApproved(uint256)": {
        "details": "See {IERC721-getApproved}."
      },
      "isApprovedForAll(address,address)": {
        "details": "See {IERC721-isApprovedForAll}."
      },
      "name()": {
        "details": "See {IERC721Metadata-name}."
      },
      "ownerOf(uint256)": {
        "details": "See {IERC721-ownerOf}."
      },
      "safeTransferFrom(address,address,uint256)": {
        "details": "See {IERC721-safeTransferFrom}."
      },
      "safeTransferFrom(address,address,uint256,bytes)": {
        "details": "See {IERC721-safeTransferFrom}."
      },
      "setApprovalForAll(address,bool)": {
        "details": "See {IERC721-setApprovalForAll}."
      },
      "supportsInterface(bytes4)": {
        "details": "See {IERC165-supportsInterface}."
      },
      "symbol()": {
        "details": "See {IERC721Metadata-symbol}."
      },
      "tokenURI(uint256)": {
        "details": "See {IERC721Metadata-tokenURI}."
      },
      "transferFrom(address,address,uint256)": {
        "details": "See {IERC721-transferFrom}."
      }
    },
    "version": 1
  },
  "userdoc": {
    "kind": "user",
    "methods": {},
    "version": 1
  },
  "storageLayout": {
    "storage": [
      {
        "astId": 1389,
        "contract": "contracts/SvgNFT.sol:SvgNFT",
        "label": "_name",
        "offset": 0,
        "slot": "0",
        "type": "t_string_storage"
      },
      {
        "astId": 1391,
        "contract": "contracts/SvgNFT.sol:SvgNFT",
        "label": "_symbol",
        "offset": 0,
        "slot": "1",
        "type": "t_string_storage"
      },
      {
        "astId": 1395,
        "contract": "contracts/SvgNFT.sol:SvgNFT",
        "label": "_owners",
        "offset": 0,
        "slot": "2",
        "type": "t_mapping(t_uint256,t_address)"
      },
      {
        "astId": 1399,
        "contract": "contracts/SvgNFT.sol:SvgNFT",
        "label": "_balances",
        "offset": 0,
        "slot": "3",
        "type": "t_mapping(t_address,t_uint256)"
      },
      {
        "astId": 1403,
        "contract": "contracts/SvgNFT.sol:SvgNFT",
        "label": "_tokenApprovals",
        "offset": 0,
        "slot": "4",
        "type": "t_mapping(t_uint256,t_address)"
      },
      {
        "astId": 1409,
        "contract": "contracts/SvgNFT.sol:SvgNFT",
        "label": "_operatorApprovals",
        "offset": 0,
        "slot": "5",
        "type": "t_mapping(t_address,t_mapping(t_address,t_bool))"
      },
      {
        "astId": 5131,
        "contract": "contracts/SvgNFT.sol:SvgNFT",
        "label": "s_tokenId",
        "offset": 0,
        "slot": "6",
        "type": "t_uint256"
      },
      {
        "astId": 5133,
        "contract": "contracts/SvgNFT.sol:SvgNFT",
        "label": "i_lowImageUri",
        "offset": 0,
        "slot": "7",
        "type": "t_string_storage"
      },
      {
        "astId": 5135,
        "contract": "contracts/SvgNFT.sol:SvgNFT",
        "label": "i_highImageUri",
        "offset": 0,
        "slot": "8",
        "type": "t_string_storage"
      },
      {
        "astId": 5145,
        "contract": "contracts/SvgNFT.sol:SvgNFT",
        "label": "s_tokenIdToHighValue",
        "offset": 0,
        "slot": "9",
        "type": "t_mapping(t_uint256,t_int256)"
      }
    ],
    "types": {
      "t_address": {
        "encoding": "inplace",
        "label": "address",
        "numberOfBytes": "20"
      },
      "t_bool": {
        "encoding": "inplace",
        "label": "bool",
        "numberOfBytes": "1"
      },
      "t_int256": {
        "encoding": "inplace",
        "label": "int256",
        "numberOfBytes": "32"
      },
      "t_mapping(t_address,t_bool)": {
        "encoding": "mapping",
        "key": "t_address",
        "label": "mapping(address => bool)",
        "numberOfBytes": "32",
        "value": "t_bool"
      },
      "t_mapping(t_address,t_mapping(t_address,t_bool))": {
        "encoding": "mapping",
        "key": "t_address",
        "label": "mapping(address => mapping(address => bool))",
        "numberOfBytes": "32",
        "value": "t_mapping(t_address,t_bool)"
      },
      "t_mapping(t_address,t_uint256)": {
        "encoding": "mapping",
        "key": "t_address",
        "label": "mapping(address => uint256)",
        "numberOfBytes": "32",
        "value": "t_uint256"
      },
      "t_mapping(t_uint256,t_address)": {
        "encoding": "mapping",
        "key": "t_uint256",
        "label": "mapping(uint256 => address)",
        "numberOfBytes": "32",
        "value": "t_address"
      },
      "t_mapping(t_uint256,t_int256)": {
        "encoding": "mapping",
        "key": "t_uint256",
        "label": "mapping(uint256 => int256)",
        "numberOfBytes": "32",
        "value": "t_int256"
      },
      "t_string_storage": {
        "encoding": "bytes",
        "label": "string",
        "numberOfBytes": "32"
      },
      "t_uint256": {
        "encoding": "inplace",
        "label": "uint256",
        "numberOfBytes": "32"
      }
    }
  }
}